{
  "contractName": "Hospital",
  "abi": [
    {
      "inputs": [],
      "payable": false,
      "stateMutability": "nonpayable",
      "type": "constructor"
    },
    {
      "anonymous": false,
      "inputs": [
        {
          "indexed": false,
          "internalType": "address payable",
          "name": "patientaccount",
          "type": "address"
        },
        {
          "indexed": false,
          "internalType": "string",
          "name": "patientname",
          "type": "string"
        },
        {
          "indexed": false,
          "internalType": "uint256",
          "name": "room",
          "type": "uint256"
        },
        {
          "indexed": false,
          "internalType": "uint256",
          "name": "doctorID",
          "type": "uint256"
        },
        {
          "indexed": false,
          "internalType": "bool",
          "name": "isbooked",
          "type": "bool"
        }
      ],
      "name": "afterbooking",
      "type": "event"
    },
    {
      "anonymous": false,
      "inputs": [
        {
          "indexed": false,
          "internalType": "address payable",
          "name": "patientaccount",
          "type": "address"
        },
        {
          "indexed": false,
          "internalType": "string",
          "name": "patientname",
          "type": "string"
        },
        {
          "indexed": false,
          "internalType": "uint256",
          "name": "room",
          "type": "uint256"
        },
        {
          "indexed": false,
          "internalType": "uint256",
          "name": "doctorID",
          "type": "uint256"
        },
        {
          "indexed": false,
          "internalType": "bool",
          "name": "isbooked",
          "type": "bool"
        }
      ],
      "name": "aftercanceling",
      "type": "event"
    },
    {
      "constant": true,
      "inputs": [
        {
          "internalType": "address",
          "name": "",
          "type": "address"
        }
      ],
      "name": "appointments",
      "outputs": [
        {
          "internalType": "address payable",
          "name": "patientaccount",
          "type": "address"
        },
        {
          "internalType": "string",
          "name": "patientname",
          "type": "string"
        },
        {
          "internalType": "uint256",
          "name": "room",
          "type": "uint256"
        },
        {
          "internalType": "uint256",
          "name": "doctorID",
          "type": "uint256"
        },
        {
          "internalType": "bool",
          "name": "isbooked",
          "type": "bool"
        }
      ],
      "payable": false,
      "stateMutability": "view",
      "type": "function"
    },
    {
      "constant": true,
      "inputs": [
        {
          "internalType": "uint256",
          "name": "",
          "type": "uint256"
        }
      ],
      "name": "array",
      "outputs": [
        {
          "internalType": "address",
          "name": "",
          "type": "address"
        }
      ],
      "payable": false,
      "stateMutability": "view",
      "type": "function"
    },
    {
      "constant": true,
      "inputs": [],
      "name": "bookingName",
      "outputs": [
        {
          "internalType": "string",
          "name": "",
          "type": "string"
        }
      ],
      "payable": false,
      "stateMutability": "view",
      "type": "function"
    },
    {
      "constant": false,
      "inputs": [
        {
          "internalType": "string",
          "name": "_patientname",
          "type": "string"
        },
        {
          "internalType": "uint256",
          "name": "_room",
          "type": "uint256"
        },
        {
          "internalType": "uint256",
          "name": "_doctorID",
          "type": "uint256"
        }
      ],
      "name": "booking",
      "outputs": [],
      "payable": false,
      "stateMutability": "nonpayable",
      "type": "function"
    },
    {
      "constant": false,
      "inputs": [],
      "name": "canceling",
      "outputs": [],
      "payable": false,
      "stateMutability": "nonpayable",
      "type": "function"
    }
  ],
  "bytecode": "0x60806040523480156200001157600080fd5b506040518060400160405280601b81526020017f626f6f6b696e672073797374656d20666f7220686f73706974616c0000000000815250600190805190602001906200005f92919062000066565b5062000115565b828054600181600116156101000203166002900490600052602060002090601f016020900481019282601f10620000a957805160ff1916838001178555620000da565b82800160010185558215620000da579182015b82811115620000d9578251825591602001919060010190620000bc565b5b509050620000e99190620000ed565b5090565b6200011291905b808211156200010e576000816000905550600101620000f4565b5090565b90565b61130c80620001256000396000f3fe608060405234801561001057600080fd5b50600436106100575760003560e01c806338d941931461005c5780637a7d8f63146100ca578063bebb69d8146101d3578063d4ef19b4146102a2578063f59a614b14610325575b600080fd5b6100886004803603602081101561007257600080fd5b810190808035906020019092919050505061032f565b604051808273ffffffffffffffffffffffffffffffffffffffff1673ffffffffffffffffffffffffffffffffffffffff16815260200191505060405180910390f35b61010c600480360360208110156100e057600080fd5b81019080803573ffffffffffffffffffffffffffffffffffffffff16906020019092919050505061036b565b604051808673ffffffffffffffffffffffffffffffffffffffff1673ffffffffffffffffffffffffffffffffffffffff1681526020018060200185815260200184815260200183151515158152602001828103825286818151815260200191508051906020019080838360005b83811015610194578082015181840152602081019050610179565b50505050905090810190601f1680156101c15780820380516001836020036101000a031916815260200191505b50965050505050505060405180910390f35b6102a0600480360360608110156101e957600080fd5b810190808035906020019064010000000081111561020657600080fd5b82018360208201111561021857600080fd5b8035906020019184600183028401116401000000008311171561023a57600080fd5b91908080601f016020809104026020016040519081016040528093929190818152602001838380828437600081840152601f19601f8201169050808301925050505050505091929192908035906020019092919080359060200190929190505050610466565b005b6102aa610b4b565b6040518080602001828103825283818151815260200191508051906020019080838360005b838110156102ea5780820151818401526020810190506102cf565b50505050905090810190601f1680156103175780820380516001836020036101000a031916815260200191505b509250505060405180910390f35b61032d610be9565b005b6002818154811061033c57fe5b906000526020600020016000915054906101000a900473ffffffffffffffffffffffffffffffffffffffff1681565b60036020528060005260406000206000915090508060000160009054906101000a900473ffffffffffffffffffffffffffffffffffffffff1690806001018054600181600116156101000203166002900480601f01602080910402602001604051908101604052809291908181526020018280546001816001161561010002031660029004801561043d5780601f106104125761010080835404028352916020019161043d565b820191906000526020600020905b81548152906001019060200180831161042057829003601f168201915b5050505050908060020154908060030154908060040160009054906101000a900460ff16905085565b336000806101000a81548173ffffffffffffffffffffffffffffffffffffffff021916908373ffffffffffffffffffffffffffffffffffffffff160217905550600083511161051d576040517f08c379a00000000000000000000000000000000000000000000000000000000081526004018080602001828103825260188152602001807f70617469656e746e616d6520697320726571756972656421000000000000000081525060200191505060405180910390fd5b60008211610593576040517f08c379a00000000000000000000000000000000000000000000000000000000081526004018080602001828103825260118152602001807f726f6f6d2069732072657175697265642100000000000000000000000000000081525060200191505060405180910390fd5b600081116105ec576040517f08c379a000000000000000000000000000000000000000000000000000000000815260040180806020018281038252602b81526020018061128a602b913960400191505060405180910390fd5b60001515600360008060009054906101000a900473ffffffffffffffffffffffffffffffffffffffff1673ffffffffffffffffffffffffffffffffffffffff1673ffffffffffffffffffffffffffffffffffffffff16815260200190815260200160002060040160009054906101000a900460ff161515146106b9576040517f08c379a00000000000000000000000000000000000000000000000000000000081526004018080602001828103825260238152602001806112b56023913960400191505060405180910390fd5b60008090505b6002805490508110156108b7578160036000600284815481106106de57fe5b9060005260206000200160009054906101000a900473ffffffffffffffffffffffffffffffffffffffff1673ffffffffffffffffffffffffffffffffffffffff1673ffffffffffffffffffffffffffffffffffffffff1681526020019081526020016000206003015414156107bb576040517f08c379a00000000000000000000000000000000000000000000000000000000081526004018080602001828103825260168152602001807f646f63746f7220686173206265656e20626f6f6b65640000000000000000000081525060200191505060405180910390fd5b8260036000600284815481106107cd57fe5b9060005260206000200160009054906101000a900473ffffffffffffffffffffffffffffffffffffffff1673ffffffffffffffffffffffffffffffffffffffff1673ffffffffffffffffffffffffffffffffffffffff1681526020019081526020016000206002015414156108aa576040517f08c379a00000000000000000000000000000000000000000000000000000000081526004018080602001828103825260148152602001807f726f6f6d20686173206265656e20626f6f6b656400000000000000000000000081525060200191505060405180910390fd5b80806001019150506106bf565b506040518060a001604052803373ffffffffffffffffffffffffffffffffffffffff16815260200184815260200183815260200182815260200160011515815250600360008060009054906101000a900473ffffffffffffffffffffffffffffffffffffffff1673ffffffffffffffffffffffffffffffffffffffff1673ffffffffffffffffffffffffffffffffffffffff16815260200190815260200160002060008201518160000160006101000a81548173ffffffffffffffffffffffffffffffffffffffff021916908373ffffffffffffffffffffffffffffffffffffffff16021790555060208201518160010190805190602001906109bb929190611155565b50604082015181600201556060820151816003015560808201518160040160006101000a81548160ff02191690831515021790555090505060023390806001815401808255809150509060018203906000526020600020016000909192909190916101000a81548173ffffffffffffffffffffffffffffffffffffffff021916908373ffffffffffffffffffffffffffffffffffffffff160217905550507f9411117ee9ef6ca303e610a2677caee4e0ba19baa2d49882c281ebc0d46841c9338484846001604051808673ffffffffffffffffffffffffffffffffffffffff1673ffffffffffffffffffffffffffffffffffffffff1681526020018060200185815260200184815260200183151515158152602001828103825286818151815260200191508051906020019080838360005b83811015610b08578082015181840152602081019050610aed565b50505050905090810190601f168015610b355780820380516001836020036101000a031916815260200191505b50965050505050505060405180910390a1505050565b60018054600181600116156101000203166002900480601f016020809104026020016040519081016040528092919081815260200182805460018160011615610100020316600290048015610be15780601f10610bb657610100808354040283529160200191610be1565b820191906000526020600020905b815481529060010190602001808311610bc457829003601f168201915b505050505081565b336000806101000a81548173ffffffffffffffffffffffffffffffffffffffff021916908373ffffffffffffffffffffffffffffffffffffffff16021790555060011515600360008060009054906101000a900473ffffffffffffffffffffffffffffffffffffffff1673ffffffffffffffffffffffffffffffffffffffff1673ffffffffffffffffffffffffffffffffffffffff16815260200190815260200160002060040160009054906101000a900460ff16151514610d13576040517f08c379a00000000000000000000000000000000000000000000000000000000081526004018080602001828103825260178152602001807f746869732070617469656e742068617320626f6f6b656400000000000000000081525060200191505060405180910390fd5b610d1b6111d5565b600360008060009054906101000a900473ffffffffffffffffffffffffffffffffffffffff1673ffffffffffffffffffffffffffffffffffffffff1673ffffffffffffffffffffffffffffffffffffffff1681526020019081526020016000206040518060a00160405290816000820160009054906101000a900473ffffffffffffffffffffffffffffffffffffffff1673ffffffffffffffffffffffffffffffffffffffff1673ffffffffffffffffffffffffffffffffffffffff168152602001600182018054600181600116156101000203166002900480601f016020809104026020016040519081016040528092919081815260200182805460018160011615610100020316600290048015610e755780601f10610e4a57610100808354040283529160200191610e75565b820191906000526020600020905b815481529060010190602001808311610e5857829003601f168201915b5050505050815260200160028201548152602001600382015481526020016004820160009054906101000a900460ff16151515158152505090507fb3f749255660a01c3bb25242e268861c984d816d64c735c0a512999ebb062665338260200151836040015184606001516001604051808673ffffffffffffffffffffffffffffffffffffffff1673ffffffffffffffffffffffffffffffffffffffff1681526020018060200185815260200184815260200183151515158152602001828103825286818151815260200191508051906020019080838360005b83811015610f6a578082015181840152602081019050610f4f565b50505050905090810190601f168015610f975780820380516001836020036101000a031916815260200191505b50965050505050505060405180910390a1600360008060009054906101000a900473ffffffffffffffffffffffffffffffffffffffff1673ffffffffffffffffffffffffffffffffffffffff1673ffffffffffffffffffffffffffffffffffffffff168152602001908152602001600020600080820160006101000a81549073ffffffffffffffffffffffffffffffffffffffff0219169055600182016000611040919061121c565b600282016000905560038201600090556004820160006101000a81549060ff0219169055505060008090505b600280549050811015611151576000809054906101000a900473ffffffffffffffffffffffffffffffffffffffff1673ffffffffffffffffffffffffffffffffffffffff16600282815481106110be57fe5b9060005260206000200160009054906101000a900473ffffffffffffffffffffffffffffffffffffffff1673ffffffffffffffffffffffffffffffffffffffff161415611144576002818154811061111257fe5b9060005260206000200160006101000a81549073ffffffffffffffffffffffffffffffffffffffff0219169055611151565b808060010191505061106c565b5050565b828054600181600116156101000203166002900490600052602060002090601f016020900481019282601f1061119657805160ff19168380011785556111c4565b828001600101855582156111c4579182015b828111156111c35782518255916020019190600101906111a8565b5b5090506111d19190611264565b5090565b6040518060a00160405280600073ffffffffffffffffffffffffffffffffffffffff1681526020016060815260200160008152602001600081526020016000151581525090565b50805460018160011615610100020316600290046000825580601f106112425750611261565b601f0160209004906000526020600020908101906112609190611264565b5b50565b61128691905b8082111561128257600081600090555060010161126a565b5090565b9056fe646f63746f7220697320726571756972656420616e6420686173207370656369666963206c656e67746821656163682070617469656e742073686f756c64206f6e6c7920626f6f6b206f6e636521a265627a7a723158204cbc2fe556a41450b1581e6b399a9b2aab98c9a4019478f12ce39509705031f464736f6c63430005100032",
  "source": "pragma solidity >=0.4.21 <0.7.0;\r\n\r\n///@title hospital appointment\r\ncontract Hospital{\r\n    address payable name;\r\n    string public bookingName;\r\n    address[] public array;\r\n\r\n    struct Appointment{\r\n        address payable patientaccount;\r\n        string patientname;\r\n        uint room;\r\n        uint doctorID;\r\n        bool isbooked;\r\n\r\n    }\r\n    mapping(address => Appointment) public appointments;\r\n    event afterbooking(\r\n        address payable patientaccount,\r\n        string patientname,\r\n\r\n        uint room,\r\n        uint doctorID,\r\n        bool isbooked\r\n\r\n    );\r\n    event aftercanceling(\r\n        address payable patientaccount,\r\n        string patientname,\r\n        uint room,\r\n        uint doctorID,\r\n        bool isbooked\r\n    );\r\n\r\n\r\n\r\n    constructor() public {\r\n        bookingName = \"booking system for hospital\";\r\n    }\r\n\r\n    function booking(string memory _patientname, uint _room, uint _doctorID) public {\r\n\r\n        name = msg.sender;\r\n        require(bytes(_patientname).length > 0, \"patientname is required!\");\r\n        require(_room > 0, \"room is required!\");\r\n        require(_doctorID > 0, \"doctor is required and has specific length!\");\r\n\r\n        require(appointments[name].isbooked == false, \"each patient should only book once!\");\r\n        for(uint i = 0; i < array.length; i++)\r\n        {\r\n            require(appointments[array[i]].doctorID!=_doctorID,\"doctor has been booked\");\r\n            require(appointments[array[i]].room!=_room,\"room has been booked\");\r\n        }\r\n\r\n        appointments[name] = Appointment(msg.sender, _patientname, _room, _doctorID, true);\r\n        array.push(msg.sender);\r\n        emit afterbooking(msg.sender, _patientname, _room, _doctorID,true);\r\n    }\r\n    function canceling() public{\r\n        name = msg.sender;\r\n        require(appointments[name].isbooked==true,\"this patient has booked\");\r\n        Appointment memory app = appointments[name];\r\n        emit aftercanceling (msg.sender, app.patientname, app.room, app.doctorID, true);\r\n        delete appointments[name];\r\n        for(uint i = 0; i<array.length; i++)\r\n        {\r\n           if(array[i]==name)\r\n           {\r\n               delete array[i];\r\n               break;\r\n           }\r\n        }\r\n    }\r\n\r\n\r\n\r\n\r\n\r\n\r\n\r\n}",
  "sourcePath": "C:\\Users\\Liyx\\Desktop\\区块链\\week6\\hospital\\src\\contracts\\Hospital.sol",
  "compiler": {
    "name": "solc",
    "version": "0.5.16+commit.9c3226ce.Emscripten.clang"
  },
  "schemaVersion": "3.0.23",
  "updatedAt": "2020-02-24T17:14:28.871Z",
  "networkType": "ethereum",
  "devdoc": {
    "methods": {},
    "title": "hospital appointment"
  },
  "userdoc": {
    "methods": {}
  }
}